:020000040000fa
:080000000002040000000000f2
:020000040000fa
:100008004a0400004a0400004a0400004a040000b0
:100018004a0400004a0400004a0400004a040000a0
:100028004a0400004a0400004a0400004a04000090
:100038004a0400004a0400004a0400004a04000080
:100048004a0400004a0400004a0400009a02000022
:10005800ce0300004a0400004a0400004a040000dd
:100068004a0400004a0400004a0400004a04000050
:100078004a0400004a0400004a0400004a04000040
:100088004a0400004a0400004a0400004a04000030
:100098004a0400004a0400004a0400004a04000020
:1000a8004a0400004a0400004a0400004a04000010
:1000b8004a0400004a0400004a0400004a04000000
:1000c8004a0400004a0400004a0400004a040000f0
:1000d8004a0400004a0400004a0400004a040000e0
:1000e8004a0400004a0400004a0400004a040000d0
:1000f8004a0400004a0400004a0400004a040000c0
:100108004a0400004a0400004a0400004a040000af
:100118004a0400004a0400004a0400004a0400009f
:100128004a0400004a0400004a0400004a0400008f
:100138004a0400004a0400004a0400004a0400007f
:100148004a0400004a0400004a0400004a0400006f
:100158004a0400004a0400004a0400004a0400005f
:100168004a0400004a0400004a0400004a0400004f
:100178004a0400004a0400004a0400004a0400003f
:100188004a0400004a0400004a0400004a0400002f
:100198004a0400004a0400004a0400004a0400001f
:1001a8004a0400004a0400004a0400004a0400000f
:1001b8004a0400004a0400004a0400004a040000ff
:1001c8004a0400004a0400004a0400004a040000ef
:1001d8004a0400004a0400004a0400004a040000df
:1001e8004a0400004a0400004a0400004a040000cf
:0801f8004a0400004a04000063
:020000040000fa
:100208004a0400004a0400004a0400004a040000ae
:100218004a0400004a0400004a0400004a0400009e
:100228004a0400004a0400004a0400004a0400008e
:100238004a0400004a0400004a0400004a0400007e
:100248004a0400004a0400004a0400009a02000020
:10025800ce0300004a0400004a0400004a040000db
:100268004a0400004a0400004a0400004a0400004e
:100278004a0400004a0400004a0400004a0400003e
:100288004a0400004a0400004a0400004a0400002e
:100298004a0400004a0400004a0400004a0400001e
:1002a8004a0400004a0400004a0400004a0400000e
:1002b8004a0400004a0400004a0400004a040000fe
:1002c8004a0400004a0400004a0400004a040000ee
:1002d8004a0400004a0400004a0400004a040000de
:1002e8004a0400004a0400004a0400004a040000ce
:1002f8004a0400004a0400004a0400004a040000be
:100308004a0400004a0400004a0400004a040000ad
:100318004a0400004a0400004a0400004a0400009d
:100328004a0400004a0400004a0400004a0400008d
:100338004a0400004a0400004a0400004a0400007d
:100348004a0400004a0400004a0400004a0400006d
:100358004a0400004a0400004a0400004a0400005d
:100368004a0400004a0400004a0400004a0400004d
:100378004a0400004a0400004a0400004a0400003d
:100388004a0400004a0400004a0400004a0400002d
:100398004a0400004a0400004a0400004a0400001d
:1003a8004a0400004a0400004a0400004a0400000d
:1003b8004a0400004a0400004a0400004a040000fd
:1003c8004a0400004a0400004a0400004a040000ed
:1003d8004a0400004a0400004a0400004a040000dd
:1003e8004a0400004a0400004a0400004a040000cd
:0803f8004a0400004a04000061
:020000040000fa
:100400000f8120000eff20000e0188000000000078
:10041000000020000000e000020032000001200087
:10042000200288000c000700e0932000010020005b
:1004300011000700000020000000e0000200320070
:100440000000020000000000f403020000000000b1
:100450000040da000000fe004440a9000000200037
:100460000000e0000300320000002000a00188002e
:100470004440a80000000600910188008000780038
:100480000000eb0015003700e280400032a0b4000d
:100490009101ba00e280400032a0b4009102ba009b
:1004a000e280400032a0b4000002eb00472bde00e7
:1004b000f507b200602ce10004003a000059eb009f
:1004c0008301e900fdff3e00040037006128e100e0
:1004d000010032000082eb00040007001101ba00a5
:1004e0000200e000e8ff3a00000006003159ba00bf
:1004f0008301e9000c0032002159ba008301e900b0
:10050000080032000400e00003003a00e2804000ee
:1005100032a0b400f5ff370011d9ba008301e90019
:10052000faff3a008100e800e180400032a0b40008
:1005300000000600809fbe00829fbe003400f800cd
:1005400000002000a00188000a00fa000000eb0073
:10055000000f78006040800020118800101180009a
:10056000620060000000e0000c0032002222a900be
:100570000b0037001e007800e70f500005003c001c
:1005800030118000804078000e80e8001e0040009e
:10059000014878001e0fe80001003700000000004d
:1005a00010118000610060000000e000f1ff3a00df
:1005b00070408000cf80de00920020000300200009
:1005c000820f5000838f58006e003e0000600100d3
:1005d00009003700110037001900370021003700eb
:1005e000300037003800370040003700490037003e
:1005f0005100370059003700ae409000f0c4b300fe
:1006000080cf500003003a001000200070408800a6
:100610005c0037000e28ef005a003700ae40900013
:10062000b0c4b30080cf500003003a002000200087
:1006300070408800530037000e28ef00510037004b
:10064000ae409000b0c2b30080cf500003003a002b
:1006500030002000704088004a0037000e28ef006c
:1006600048003700ae40900030c4b30080cf500047
:1006700003003a004000200070408800410037002d
:10068000ae409000c0c4b30080cf500003003a00d9
:1006900070002000704088003a0037000e28ef00fc
:1006a00038003700ae409000f0c4b30080cf500057
:1006b00003003a00500020007040880031003700ed
:1006c0000e28ef002f003700ae409000e0c4b300ca
:1006d00080cf500003003a00600020007040880086
:1006e000280037000e28ef0026003700ae409000ab
:1006f000e0c4b30080cf500004003a000e28ef00a1
:10070000f00f2000604088001e0037000e28ef0028
:100710001c003700ae409000f0c4b30080cf500002
:1007200003003a0080002000704088001500370068
:100730000e28ef0013003700ae40900030c5b30024
:1007400080cf500003003a009000200070408800e5
:100750000c0037000e28ef000a003700ae40900072
:1007600040c5b30080cf500004003a000e28ef00cf
:10077000f00f200060408800020037000e28ef00d4
:10078000000000008560a9000080fa003400f90034
:100790004f01be004f00be00004006003600f800ca
:1007a000809fbe00829fbe00849fbe00869fbe00c9
:1007b0003400f80000002000a00188000000fa00ca
:1007c0004c0007008580a9000080fa003400f90081
:1007d0004f03be004f02be004f01be004f00be00df
:1007e0003600f900004006000200fa000c28ef0075
:1007f0004427ef00900007000e28ef000000eb00f8
:10080000000f780000202a0020088800f0572200fe
:10081000100888008460a900000000002004800007
:10082000680060000000e000fcff32008460a90066
:1008300061408000f00f2000808f50000f003a00d0
:100840000c28ef001e0078000000e00006003a00cf
:1008500000c02600c12d20007a02070010002000f1
:10086000000f78000500370000402200410f2000f3
:10087000740207000000eb00000f78001e007800f3
:10088000e10f500001003a00650007000000000081
:0c089000e2ff37000040da000000fe002c
:020000040000fa
:10089c000400fa00100798009e00900000fc200055
:1008ac00008060004600de00004078000040400000
:1008bc00004f78001e4078000080fa00000006000f
:1008cc000400fa00100798001e0090000040780009
:1008dc00f043b20000404000004f78001e4078000a
:1008ec000080fa00000006000000fa005040800072
:1008fc000000e0000d003a0000c8bf000080fb00c3
:10090c002011880001c8bf000080fb002011880066
:10091c0002c8bf000080fb002011880003c8bf0084
:10092c000080fb002011880016003700504080002a
:10093c00e10f50000d003a0004c8bf000080fb001e
:10094c002011880005c8bf000080fb002011880022
:10095c0006c8bf000080fb002011880007c8bf003c
:10096c000080fb00201188000600370050408000fa
:10097c00e20f500007003a0008c8bf000080fb00df
:10098c0020118800504080000000e8005040880092
:10099c0001003700000000000080fa000000060093
:1009ac000000fa0000c8b30000e8b700f0ff200018
:1009bc00b7ff070001e8b700f0ff2000c0ff0700f9
:1009cc0002e8b70030fe2000b1ff070003e8b700d3
:1009dc0030fe2000baff070004e8b700c0f1200089
:1009ec00abff070005e8b700c0f12000b4ff07001b
:1009fc0006e8b700f0f32000a5ff070007e8b700f2
:100a0c00f0f32000aeff070008e8b7000080fa0002
:100a1c00000006000000fa000a28ef00e0ff0700c3
:100a2c00b1ff07000080fa00000006000000fa0089
:100a3c00c2010700000120004011880080802800be
:100a4c000011880000512200101188005005800010
:100a5c000000a0000010a0000020a100500588009c
:100a6c008580a9009580a8004005800000c0a100e9
:100a7c0000d0a10000e0a000400588008560a9001e
:100a8c009560a800e024ef00e224ef000080fa005b
:100a9c00000006000000fa00c9e2a900cbe2a900a0
:100aac0000502300c1002000e3010700cbe2a800a6
:100abc000080fa00000006000000fa004427ef0056
:100acc00000120004011880080802800001188005f
:100adc00005128001011880000202a0020088800ee
:100aec00f0572200100888008460a9000080fa00ea
:100afc00000006000000fa004427ef0070062000fa
:100b0c004011880000802800001188000051280046
:100b1c001011880000202a0020088800f0572200bd
:100b2c00100888008460a9000080fa00000006000c
:100b3c000000fa0010c4b3006801070040c5b30000
:100b4c0066010700b0c2b300640107000080fa0020
:100b5c00000006000000fa00f5ff0700e0c4b30037
:100b6c005e01070010c4b3005c010700d0c4b300e1
:100b7c005a01070050c4b3005801070040c5b30028
:100b8c005601070070c7b3005401070090c6b300ac
:100b9c0052010700e0c6b30050010700d0c4b300f7
:100bac004e01070010c6b3004c01070080c7b3000c
:100bbc004a0107000080fa00000006000000fa005d
:100bcc00dbff0700e0c4b30044010700f0c4b3002e
:100bdc004201070040c5b3004001070090c4b300b8
:100bec003e01070010c3b3003c0107000080fa006f
:100bfc00000006000200fa00000f780040c5b300a8
:100c0c003601070050c4b3003401070030c5b300ef
:100c1c003201070040c5b3003001070010c3b30018
:100c2c002e010700a0c0b3002c0107000080fa00c1
:100c3c00000006000200fa00000f780040c5b30067
:100c4c002601070050c4b3002401070030c5b300cf
:100c5c002201070040c5b3002001070020c3b300e8
:100c6c001e010700a0c0b3001c0107000080fa00a1
:100c7c00000006000000fa00adff070020c4b3001e
:100c8c001601070010c4b3001401070050c5b300cf
:100c9c001201070040c4b30010010700f0c3b300f9
:100cac000e0107000080fa00000006000000fa00a8
:100cbc009fff070020c4b3000801070010c4b30055
:100ccc000601070050c5b3000401070040c4b3007f
:100cdc000201070080c3b300000107000080fa0086
:100cec00000006000000fa0091ff070060c4b3008a
:100cfc00fa00070090c4b300f8000700c0c4b300aa
:100d0c00f600070040c5b300f4000700f0c3b300c1
:100d1c00f20007000080fa00000006000000fa0054
:100d2c0083ff070010c4b300ec00070040c4b300fd
:100d3c00ea00070060c5b300e800070090c4b300e8
:100d4c00e6000700f0c3b300e40007000080fa00df
:100d5c00000006000000fa0075ff070010c4b30085
:100d6c00de00070040c4b300dc00070060c5b30020
:100d7c00da00070090c4b300d800070090c3b3009a
:100d8c00d60007000080fa00000006000000fa0000
:100d9c0067ff070000c5b300d000070010c4b30004
:100dac00ce00070020c5b300cc00070090c4b300f0
:100dbc00ca00070000c3b300c80007000080fa0097
:100dcc00000006000000fa0059ff070030c5b30010
:100ddc00c2000700c0c4b300c000070050c4b30079
:100dec00be00070050c4b300bc00070000c5b30030
:100dfc00ba0007000080fa00000006000000fa00ac
:100e0c004bff070040c5b300b400070090c5b3000a
:100e1c00b200070000c5b300b000070050c4b30017
:100e2c00ae000700f0c3b300ac0007000080fa006e
:100e3c00000006000000fa003dff070060c5b3008b
:100e4c00a600070050c4b300a400070020c5b300df
:100e5c00a200070030c5b300a0000700f0c3b30028
:100e6c009e0007000080fa00000006000000fa0057
:100e7c002fff0700d0c4b30098000700f0c4b300e4
:100e8c009600070040c4b3009400070050c4b300a0
:100e9c0092000700f0c3b300900007000080fa0036
:100eac00000006000000fa0021ff0700d0c4b300c8
:100ebc008a000700f0c4b3008800070040c4b300e8
:100ecc008600070050c4b3008400070000c3b300c1
:100edc00820007000080fa00000006000000fa0003
:100eec0013ff070000c5b3007c000700f0c4b3007b
:100efc007a00070070c5b3007800070050c4b30037
:100f0c007600070030c3b300740007000080fa00bd
:100f1c00000006000000fa0005ff070000c5b30042
:100f2c006e000700f0c4b3006c00070070c5b3007e
:100f3c006a00070050c4b30068000700f0c3b30098
:100f4c00660007000080fa00000006000000fa00ae
:100f5c00f7fe070020c5b3006000070050c4b300c3
:100f6c005e000700e0c4b3005c00070050c4b3008f
:100f7c005a00070070c5b300580007000080fa0043
:100f8c00000006000000fa00e9fe070020c5b300cf
:100f9c005200070050c4b30050000700c0c4b30097
:100fac004e00070090c4b3004c00070010c3b30000
:100fbc004a0007000080fa00000006000000fa005a
:100fcc00dbfe070030c5b3004400070040c5b3008a
:100fdc004200070010c4b3004000070020c5b30056
:100fec003e00070040c5b3003c0007000080fa003b
:100ffc00000006000200fa000000eb00000f780071
:10100c000300370030c4b300340007001e0fe800a3
:10101c00200520009e007800808f5000f9ff3400de
:10102c000040eb002d0007000080fa0000000600d5
:10103c000c00fa000000eb00000f7800e400470001
:10104c00030009008018eb000000eb00100798006b
:10105c0010118000620060000000e000030032000c
:10106c0010118000f00f2000000f7800101180008c
:10107c00610060000000e00010003200f00f200062
:10108c00000f78000e0037001e009000e70f500094
:10109c0006003c003011800080407800640147005d
:1010ac001e00900000004100014878001e009000d6
:1010bc000000e80010079800010037000000000055
:1010cc0010118000610060000000e000eeff3a00ab
:1010dc001e0078000080fa00000006000200fa00f2
:1010ec00004f78000000000011118000002020004b
:1010fc00008060000000e000fbff3a001e00fb00d7
:10110c00201188000080fa00000006000200fa009e
:10111c00004f78000000000011118000002020001a
:10112c00008060000000e000fbff3a001e80fb0026
:10113c00201188000080fa00000006000000fa0070
:10114c005dfe0700abff070000a026008101200018
:10115c00390007007dff070000202100a1072000b7
:10116c003500070063fe0700a2ff070000a0260061
:10117c0081012000300007004aff070000a0260074
:10118c00810120002c00070072fe070000a0260041
:10119c008101200028000700eefe070000a02600b9
:1011ac00810120002400070084fe070000a0260017
:1011bc00810120002000070048ff070000a0260046
:1011cc00810120001c0007006eff070000a0260014
:1011dc008101200018000700b4fe070000a02600c3
:1011ec00810120001400070033fe070000a0260038
:1011fc0081012000100007001011800062006000c7
:10120c000000e000050032002222a9000400370093
:10121c003011800020118800010037000000000010
:10122c0010118000610060000000e000f8ff3a003f
:08123c000080fa00000006002a
:020000040000fa
:10124400f03fb1000180b10006003500ee03090053
:1012540000000000403fb1000180b100fbff3d00f1
:101264001000b000203fb0000200350000800900eb
:0812740000000000000006006c
:020000040000fa
:10127c000c08000004000000000000000008000042
:0c128c000c00000000000000000000004a
:020000040000fa
:0200000401f009
:04000000ffff0000fe
:020000040000fa
:0200000401f009
:04000800ffff0000f6
:020000040000fa
:0200000401f009
:04000c0059ff000098
:020000040000fa
:0200000401f009
:04001000bfff00002e
:020000040000fa
:0200000401f009
:0400140050ff000099
:020000040000fa
:0200000401f009
:04001800f7ff0000ee
:020000040000fa
:0200000401f009
:04001c00feff0000e3
:00000001FF
