:020000040000fa
:080000000002040000000000f2
:020000040000fa
:100008004a0400004a0400004a0400004a040000b0
:100018004a0400004a0400004a0400004a040000a0
:100028004a0400004a0400004a0400004a04000090
:100038004a0400004a0400004a0400004a04000080
:100048004a0400004a0400004a0400009a02000022
:10005800ce0300004a0400004a0400004a040000dd
:100068004a0400004a0400004a0400004a04000050
:100078004a0400004a0400004a0400004a04000040
:100088004a0400004a0400004a0400004a04000030
:100098004a0400004a0400004a0400004a04000020
:1000a8004a0400004a0400004a0400004a04000010
:1000b8004a0400004a0400004a0400004a04000000
:1000c8004a0400004a0400004a0400004a040000f0
:1000d8004a0400004a0400004a0400004a040000e0
:1000e8004a0400004a0400004a0400004a040000d0
:1000f8004a0400004a0400004a0400004a040000c0
:100108004a0400004a0400004a0400004a040000af
:100118004a0400004a0400004a0400004a0400009f
:100128004a0400004a0400004a0400004a0400008f
:100138004a0400004a0400004a0400004a0400007f
:100148004a0400004a0400004a0400004a0400006f
:100158004a0400004a0400004a0400004a0400005f
:100168004a0400004a0400004a0400004a0400004f
:100178004a0400004a0400004a0400004a0400003f
:100188004a0400004a0400004a0400004a0400002f
:100198004a0400004a0400004a0400004a0400001f
:1001a8004a0400004a0400004a0400004a0400000f
:1001b8004a0400004a0400004a0400004a040000ff
:1001c8004a0400004a0400004a0400004a040000ef
:1001d8004a0400004a0400004a0400004a040000df
:1001e8004a0400004a0400004a0400004a040000cf
:0801f8004a0400004a04000063
:020000040000fa
:100208004a0400004a0400004a0400004a040000ae
:100218004a0400004a0400004a0400004a0400009e
:100228004a0400004a0400004a0400004a0400008e
:100238004a0400004a0400004a0400004a0400007e
:100248004a0400004a0400004a0400009a02000020
:10025800ce0300004a0400004a0400004a040000db
:100268004a0400004a0400004a0400004a0400004e
:100278004a0400004a0400004a0400004a0400003e
:100288004a0400004a0400004a0400004a0400002e
:100298004a0400004a0400004a0400004a0400001e
:1002a8004a0400004a0400004a0400004a0400000e
:1002b8004a0400004a0400004a0400004a040000fe
:1002c8004a0400004a0400004a0400004a040000ee
:1002d8004a0400004a0400004a0400004a040000de
:1002e8004a0400004a0400004a0400004a040000ce
:1002f8004a0400004a0400004a0400004a040000be
:100308004a0400004a0400004a0400004a040000ad
:100318004a0400004a0400004a0400004a0400009d
:100328004a0400004a0400004a0400004a0400008d
:100338004a0400004a0400004a0400004a0400007d
:100348004a0400004a0400004a0400004a0400006d
:100358004a0400004a0400004a0400004a0400005d
:100368004a0400004a0400004a0400004a0400004d
:100378004a0400004a0400004a0400004a0400003d
:100388004a0400004a0400004a0400004a0400002d
:100398004a0400004a0400004a0400004a0400001d
:1003a8004a0400004a0400004a0400004a0400000d
:1003b8004a0400004a0400004a0400004a040000fd
:1003c8004a0400004a0400004a0400004a040000ed
:1003d8004a0400004a0400004a0400004a040000dd
:1003e8004a0400004a0400004a0400004a040000cd
:0803f8004a0400004a04000061
:020000040000fa
:100400000f8120000eff20000e0188000000000078
:10041000000020000000e000020032000001200087
:10042000200288000c000700607b200001002000f3
:1004300011000700000020000000e0000200320070
:100440000000020000000000f403020000000000b1
:100450000040da000000fe004440a9000000200037
:100460000000e0000300320000002000a00188002e
:100470004440a80000000600910188008000780038
:100480000000eb0015003700e280400032a0b4000d
:100490009101ba00e280400032a0b4009102ba009b
:1004a000e280400032a0b4000002eb00472bde00e7
:1004b000f507b200602ce10004003a000059eb009f
:1004c0008301e900fdff3e00040037006128e100e0
:1004d000010032000082eb00040007001101ba00a5
:1004e0000200e000e8ff3a00000006003159ba00bf
:1004f0008301e9000c0032002159ba008301e900b0
:10050000080032000400e00003003a00e2804000ee
:1005100032a0b400f5ff370011d9ba008301e90019
:10052000faff3a008100e800e180400032a0b40008
:1005300000000600809fbe00829fbe003400f800cd
:1005400000002000a00188000a00fa000000eb0073
:10055000000f78006040800020118800101180009a
:10056000620060000000e0000c0032002222a900be
:100570000b0037001e007800e70f500005003c001c
:1005800030118000804078000e80e8001e0040009e
:10059000014878001e0fe80001003700000000004d
:1005a00010118000610060000000e000f1ff3a00df
:1005b00070408000cf80de00920020000300200009
:1005c000820f5000838f58006e003e0000600100d3
:1005d00009003700110037001900370021003700eb
:1005e000300037003800370040003700490037003e
:1005f0005100370059003700ae409000f0c4b300fe
:1006000080cf500003003a001000200070408800a6
:100610005c0037000e28ef005a003700ae40900013
:10062000b0c4b30080cf500003003a002000200087
:1006300070408800530037000e28ef00510037004b
:10064000ae409000b0c2b30080cf500003003a002b
:1006500030002000704088004a0037000e28ef006c
:1006600048003700ae40900030c4b30080cf500047
:1006700003003a004000200070408800410037002d
:10068000ae409000c0c4b30080cf500003003a00d9
:1006900070002000704088003a0037000e28ef00fc
:1006a00038003700ae409000f0c4b30080cf500057
:1006b00003003a00500020007040880031003700ed
:1006c0000e28ef002f003700ae409000e0c4b300ca
:1006d00080cf500003003a00600020007040880086
:1006e000280037000e28ef0026003700ae409000ab
:1006f000e0c4b30080cf500004003a000e28ef00a1
:10070000f00f2000604088001e0037000e28ef0028
:100710001c003700ae409000f0c4b30080cf500002
:1007200003003a0080002000704088001500370068
:100730000e28ef0013003700ae40900030c5b30024
:1007400080cf500003003a009000200070408800e5
:100750000c0037000e28ef000a003700ae40900072
:1007600040c5b30080cf500004003a000e28ef00cf
:10077000f00f200060408800020037000e28ef00d4
:10078000000000008560a9000080fa003400f90034
:100790004f01be004f00be00004006003600f800ca
:1007a000809fbe00829fbe00849fbe00869fbe00c9
:1007b0003400f80000002000a00188000000fa00ca
:1007c0004c0007008580a9000080fa003400f90081
:1007d0004f03be004f02be004f01be004f00be00df
:1007e0003600f900004006000200fa000c28ef0075
:1007f0004427ef00900007000e28ef000000eb00f8
:10080000000f780000202a0020088800f0572200fe
:10081000100888008460a900000000002004800007
:10082000680060000000e000fcff32008460a90066
:1008300061408000f00f2000808f50000f003a00d0
:100840000c28ef001e0078000000e00006003a00cf
:1008500000c02600c12d2000b601070010002000b6
:10086000000f78000500370000402200410f2000f3
:10087000b00107000000eb00000f78001e007800b8
:10088000e10f500001003a00650007000000000081
:0c089000e2ff37000040da000000fe002c
:020000040000fa
:10089c000400fa00100798009e00900000fc200055
:1008ac00008060004600de00004078000040400000
:1008bc00004f78001e4078000080fa00000006000f
:1008cc000400fa00100798001e0090000040780009
:1008dc00f043b20000404000004f78001e4078000a
:1008ec000080fa00000006000000fa005040800072
:1008fc000000e0000d003a0000c8bf000080fb00c3
:10090c002011880001c8bf000080fb002011880066
:10091c0002c8bf000080fb002011880003c8bf0084
:10092c000080fb002011880016003700504080002a
:10093c00e10f50000d003a0004c8bf000080fb001e
:10094c002011880005c8bf000080fb002011880022
:10095c0006c8bf000080fb002011880007c8bf003c
:10096c000080fb00201188000600370050408000fa
:10097c00e20f500007003a0008c8bf000080fb00df
:10098c0020118800504080000000e8005040880092
:10099c0001003700000000000080fa000000060093
:1009ac000000fa0000c8b30000e8b700f0ff200018
:1009bc00b7ff070001e8b700f0ff2000c0ff0700f9
:1009cc0002e8b70030fe2000b1ff070003e8b700d3
:1009dc0030fe2000baff070004e8b700c0f1200089
:1009ec00abff070005e8b700c0f12000b4ff07001b
:1009fc0006e8b700f0f32000a5ff070007e8b700f2
:100a0c00f0f32000aeff070008e8b7000080fa0002
:100a1c00000006000000fa000a28ef00e0ff0700c3
:100a2c00b1ff07000080fa00000006000000fa0089
:100a3c00fe00070000012000401188008080280083
:100a4c000011880000512200101188005005800010
:100a5c000000a0000010a0000020a100500588009c
:100a6c008580a9009580a8004005800000c0a100e9
:100a7c0000d0a10000e0a000400588008560a9001e
:100a8c009560a800e024ef00e224ef000080fa005b
:100a9c00000006000000fa004427ef0000012000cf
:100aac004011880080802800001188000051280027
:100abc001011880000202a0020088800f05722001e
:100acc00100888008460a9000080fa00000006006d
:100adc000000fa004427ef00700620004011880047
:100aec000080280000118800005128001011880097
:100afc0000202a0020088800f057220010088800e7
:100b0c008460a9000080fa00000006000000fa00d2
:100b1c0010c4b300ad00070040c5b300ab00070024
:100b2c00b0c2b300a90007000080fa000000060064
:100b3c000000fa00f5ff0700e0c4b300a3000700b3
:100b4c0010c4b300a1000700d0c4b3009f0007007d
:100b5c0050c4b3009d00070040c5b3009b000700c4
:100b6c0070c7b3009900070090c6b3009700070048
:100b7c00e0c6b30095000700d0c4b3009300070093
:100b8c0010c6b3009100070080c7b3008f000700a8
:100b9c000080fa00000006000000fa00dbff0700ee
:100bac00e0c4b30089000700f0c4b300870007005d
:100bbc0040c5b3008500070090c4b3008300070054
:100bcc0010c3b300810007000080fa00000006008b
:100bdc000000fa00cdff070020c4b3007b00070023
:100bec0010c4b3007900070050c5b30077000700ac
:100bfc0040c4b3007500070080c3b3007300070046
:100c0c000080fa00000006000000fa00bfff070099
:100c1c0010c4b3006d00070040c4b3006b000700a4
:100c2c0060c5b3006900070090c4b30067000700fb
:100c3c0090c3b300650007000080fa0000000600b6
:100c4c000000fa00b1ff070000c5b3005f00070009
:100c5c0010c4b3005d00070020c5b3005b000700a3
:100c6c0090c4b3005900070000c3b300570007003d
:100c7c000080fa00000006000000fa00a3ff070045
:100c8c0030c5b30051000700c0c4b3004f000700cb
:100c9c0050c4b3004d00070050c4b3004b00070014
:100cac0000c5b300490007000080fa0000000600f0
:100cbc000000fa0095ff0700d0c4b3004300070002
:100ccc00f0c4b3004100070040c4b3003f0007006c
:100cdc0050c4b3003d00070000c3b3003b00070045
:100cec000080fa00000006000000fa0087ff0700f1
:100cfc0000c5b30035000700f0c4b3003300070093
:100d0c0070c5b3003100070050c4b3002f000700ba
:100d1c0030c3b3002d0007000080fa00000006006d
:100d2c000000fa0079ff070020c5b3002700070078
:100d3c0050c4b30025000700e0c4b3002300070033
:100d4c0050c4b3002100070070c5b3001f0007009a
:100d5c000080fa00000006000000fa006bff07009c
:100d6c0020c5b3001900070050c4b30017000700da
:100d7c00c0c4b3001500070090c4b30013000700f3
:100d8c0010c3b300110007000080fa000000060039
:100d9c000200fa000000eb00000f7800030037009f
:100dac0030c4b300090007001e0fe8002005200026
:100dbc009e007800808f5000f9ff34000040eb005b
:100dcc00020007000080fa00000006000200fa0092
:100ddc00004f78000000000011118000002020005e
:100dec00008060000000e000fbff3a001e00fb00ea
:100dfc00201188000080fa00000006000200fa00b2
:100e0c00004f78000000000011118000002020002d
:100e1c00008060000000e000fbff3a001e80fb0039
:100e2c00201188000080fa00000006000000fa0083
:100e3c0018ff0700d6ff070000a026008101200044
:100e4c0039000700b6ff070000202100a107200091
:100e5c00350007001eff0700cdff070000a026008d
:100e6c00810120003000070091ff070000a0260040
:100e7c00810120002c0007002dff070000a0260098
:100e8c0081012000280007005fff070000a026005a
:100e9c0081012000240007003fff070000a026006e
:100eac0081012000200007008fff070000a0260012
:100ebc00810120001c000700a7ff070000a02600ee
:100ecc00810120001800070041ff070000a0260048
:100edc008101200014000700eefe070000a0260090
:100eec0081012000100007001011800062006000da
:100efc000000e000050032002222a90004003700a7
:100f0c003011800020118800010037000000000023
:100f1c0010118000610060000000e000f8ff3a0052
:080f2c000080fa00000006003d
:020000040000fa
:100f3400f03fb1000180b10006003500ee03090066
:100f440000000000403fb1000180b100fbff3d0004
:100f54001000b000203fb0000200350000800900fe
:080f640000000000000006007f
:020000040000fa
:100f6c000c08000004000000000000000008000055
:0c0f7c000c00000000000000000000005d
:020000040000fa
:0200000401f009
:04000000ffff0000fe
:020000040000fa
:0200000401f009
:04000800ffff0000f6
:020000040000fa
:0200000401f009
:04000c0059ff000098
:020000040000fa
:0200000401f009
:04001000bfff00002e
:020000040000fa
:0200000401f009
:0400140050ff000099
:020000040000fa
:0200000401f009
:04001800f7ff0000ee
:020000040000fa
:0200000401f009
:04001c00feff0000e3
:00000001FF
